:020000040800F2
:10000000000A00204501000857460008991C000816
:1000100053460008C5020008ED91000800000000EA
:1000200000000000000000000000000091840008B3
:100030006D0C000800000000257D00082D880008D8
:100040005F0100085F0100085F0100085F01000810
:100050005F0100085F0100085F0100085F01000800
:100060005F0100085F0100085F0100085F010008F0
:100070005F0100085F010008A90600085F01000891
:100080005F0100085F0100085F0100085F010008D0
:100090005F0100085F0100085F0100085F010008C0
:1000A0005F0100085F0100085F0100085F010008B0
:1000B0005F0100085F0100085F0100085F010008A0
:1000C0005F0100085F0100085F0100085F01000890
:1000D0005F010008098E00085F0100085F01000849
:1000E0005F0100085F0100085F0100085F01000870
:1000F0005F0100085F0100085F0100085F01000860
:100100005F0100085F0100085F0100085F0100084F
:100110005F0100085F010008918800085F01000886
:100120005F0100085F0100085F0100085F0100082F
:10013000DFF80CD000F040F800480047B5A10008F7
:10014000000A00200648804706480047FEE7FEE711
:10015000FEE7FEE7FEE7FEE7FEE7FEE7FEE7FEE777
:10016000318800083101000840EA01039B0703D0F1
:1001700009E008C9121F08C0042AFAD203E011F8E6
:10018000013B00F8013B521EF9D2704730B50B46D7
:10019000014600202022012409E021FA02F59D42B7
:1001A00005D303FA02F5491B04FA02F52844151E8B
:1001B000A2F10102F1DC30BD064C074D06E0E0681B
:1001C00040F0010394E8070098471034AC42F6D39E
:1001D000FFF7B2FFACA30008CCA3000870B58C18E1
:1001E00010F8015B15F0070301D110F8013B2A114B
:1001F00006D110F8012B03E010F8016B01F8016B38
:100200005B1EF9D12B0705D40023521E0DD401F833
:10021000013BFAE710F8013BCB1A921C03E013F8FC
:10022000015B01F8015B521EF9D5A142D8D3002031
:1002300070BD10B500F024F800F002F810BD000009
:100240000EB50121102007F07FFD40F2E730ADF838
:1002500004004720ADF800006946084808F02EFC6D
:100260000121064808F0B2FB01221146034808F0BC
:10027000D0FB0121014808F0AFFB0EBD001000408B
:1002800008B54FF4E06004F01FFA36208DF8000046
:1002900000208DF8010003208DF8020001208DF868
:1002A0000300684604F0D8F908BD00000149088041
:1002B000704700004008004010B501F05FFB01F0FE
:1002C00073FB10BD00BFFEE710B54FF400411948A5
:1002D00001F0D7FC4FF48041164801F0D2FC4FF4F6
:1002E0008071154801F0CBFC4FF40071114801F00A
:1002F000C8FC01F0D9FB19E04FF480710D4801F002
:10030000C0FC01210B4801F0B1FC012801D10124FE
:1003100000E000244FF48071064801F0B0FC0A2090
:1003200009F0ABF804F0010000B900E0E4E700BF19
:1003300010BD0000001001400008014010B5044647
:1003400000210B4800F0E6F90A48094944390865DC
:10035000084684640121064800F0DCF9012280216E
:10036000054808F0EDFD01200449087010BD0000AB
:1003700044000240540400200038014018000020CE
:1003800070B5002412E004F1B901C8B209F046FFCB
:10039000472009F043FF052C03D13F2009F0A2FFBD
:1003A00002E0FF2009F09EFF601C84B2062CEADB0D
:1003B000002412E004F1B901C8B209F061FF78200D
:1003C00009F05EFF052C03D13F2009F0BDFF02E0DC
:1003D000FF2009F0B9FF601C84B2062CEADBB920CB
:1003E00009F01CFFB92009F04BFF482009F016FF67
:1003F000402009F045FF002507E0012009F072FFC9
:10040000012009F0A1FF681C85B2382DF5DBBE2064
:1004100009F004FFBE2009F033FF482009F0FEFE7A
:10042000402009F02DFF002507E0202009F05AFFA9
:10043000202009F089FF681C85B2382DF5DB0024E7
:100440001DE004F1BA01C8B209F01AFF402009F01A
:1004500017FF04F1BA01C8B209F0E0FE482009F024
:10046000DDFE002507E0002009F03CFF002009F038
:100470006BFF681C85B2382DF5DB601C84B2042C40
:10048000DFDB70BD30B50246B1F57A7F2BDB4FF470
:100490007A7391FBF3F3303313704FF47A7391FB5B
:1004A000F3F403FB1413642493FBF4F3303353701D
:1004B0004FF47A7391FBF3F403FB1413642493FB5E
:1004C000F4F504FB15330A2493FBF4F330339370F3
:1004D0000A2391FBF3F403FB14133033D37000238E
:1004E0001371042033E0642919DB642391FBF3F3D7
:1004F00030331370642391FBF3F403FB14130A24C9
:1005000093FBF4F3303353700A2391FBF3F403FBB2
:100510001413303393700023D370032017E00A299B
:100520000FDB0A2391FBF3F3303313700A2391FBA3
:10053000F3F403FB14133033537000239370022041
:1005400005E001F13003137000235370012030BD2A
:1005500010B5002968DBB1F57A7F2ADB4FF47A7297
:1005600091FBF2F2303202704FF47A7291FBF2F3A7
:1005700002FB1312642392FBF3F2303242704FF409
:100580007A7291FBF2F302FB1312642392FBF3F4F1
:1005900003FB14220A2392FBF3F2303282700A2208
:1005A00091FBF2F302FB13123032C270002202718F
:1005B00078E064291ADB20220270642291FBF2F2B7
:1005C00030324270642291FBF2F302FB13120A23D1
:1005D00092FBF3F2303282700A2291FBF2F302FBBB
:1005E00013123032C270002202715BE00A2911DB63
:1005F0002022027042700A2291FBF2F230328270A5
:100600000A2291FBF2F302FB13123032C270002275
:10061000027147E0202202704270827001F13002C4
:10062000C270002202713DE04A4211B264291ADB15
:100630002D220270642291FBF2F230324270642269
:1006400091FBF2F302FB13120A2392FBF3F2303216
:1006500082700A2291FBF2F302FB13123032C27055
:10066000002202711EE00A2912DB202202702D22D4
:1006700042700A2291FBF2F2303282700A2291FB20
:10068000F2F302FB13123032C2700022027109E051
:100690002022027042702D22827001F13002C2705D
:1006A0000022027110BD000010B54FF4005000F0A0
:1006B000E7F801280DD1000300F01EF84FF40050B8
:1006C00000F00CF80021034800F024F80020024953
:1006D000087010BD440002401800002000F0805156
:1006E00011B10349086001E0024948607047000009
:1006F000040402400000024000F0805111B103499F
:10070000086001E0024948607047000004040240AC
:100710000000024021B1026842F00102026004E0E0
:1007200002684FF6FE731A400260704701684FF688
:10073000FE72114001600021016041608160C16072
:100740004B49884208D14A490839496841F00F01AC
:10075000474A083A51608AE045491431884208D135
:1007600043490839496841F0F001414A083A51606B
:100770007DE03F492831884208D13D490839496820
:1007800041F470613A4A083A516070E038493C31AE
:10079000884208D136490839496841F47041344AE1
:1007A000083A516063E032495031884208D13049FB
:1007B0000839496841F470212D4A083A516056E0E1
:1007C0002B496431884208D129490839496841F4E4
:1007D0007001274A083A516049E02549783188423A
:1007E00008D123490839496841F07061204A083A24
:1007F00051603CE01F49884206D1011F096841F061
:100800000F01021F116032E01A491431884208D1E9
:100810001849091F096841F0F001164A121F1160BA
:1008200025E014492831884208D11249091F096876
:1008300041F470610F4A121F116018E00D493C31FC
:10084000884208D10B49091F096841F47041094ADF
:10085000121F11600BE007495031884207D105494A
:10086000091F096841F47021024A121F1160704784
:1008700008000240080402400146486880B2704700
:1008800001460020002201F0805313B1054B1A6885
:1008900001E0054B1A6802EA01030BB1012000E0F8
:1008A0000020704700040240000002401AB10368B3
:1008B0000B43036002E003688B430360704710B58D
:1008C0000022026847F6F0739A430C6A8B68234350
:1008D0000C6923434C6923438C692343CC6923432C
:1008E0004C6A23438C6A23431A430260CB684360FB
:1008F0000B6883604B68C36010BD416070470000A7
:100900002DE9F05FC6480078012866D10020C4496F
:100910000870C44800785A287DD1C2484078A5287C
:10092000FAD1C0488078C01CC7B2BF48008887424F
:1009300072D1B81EBB4911F800A04FF6FF7000EA53
:100940000A2A781E085C40EA0A0AB81EC1B2B548F5
:1009500008F078FD504575D10020B4490880B449AD
:100960000880B04890F8038005794FF6FF7000EAE0
:100970000525AC4840790543AA4890F80690B8F19F
:10098000830F60D1AB4EDFF8B0B2B9F1000F25D1C3
:10099000AA480078F028B8D1A94800788542B4D197
:1009A00000240DE0A64800782044401E3BF81010BB
:1009B000A34800782044401E26F81010601CC4B2E2
:1009C000A0480078B4EB600FECDB01209B49087075
:1009D0009D49087000209D4908801FE1002427E000
:1009E000072000EB44008F49095C2819401E26F8B7
:1009F00010102819401E36F810004FF6FF7101EA5A
:100A000000212819401E26F810102819401E36F81B
:100A10001000082101E0FBE0F3E001EB4401814A12
:100A2000515C08432919491E26F81100601CC4B204
:100A3000B4EB690FD4DB0023832229467E4807F0FC
:100A400041FDEBE0D6E0B8F1800F00D1E6E0B8F16F
:100A5000810F7DD10E2D62D17248C0797C4908701A
:100A60007048007A48706F48407A88706D48807A84
:100A7000C8706C48C07A08716A48007BC880084614
:100A8000C0884FF6FF7101EA00207149C88008460E
:100A9000C0886449497B08436D49C8806148807BB0
:100AA0000881084600894FF6FF7101EA0020684975
:100AB0000881084600895B49C97B0843644908816D
:100AC0005848007C4881084640894FF6FF7101EA8A
:100AD00000205F494881084640895249497C0843C3
:100AE0005B4948814F48807C8881084680894FF661
:100AF000FF7101EA0020564988814A48C07C8881FC
:100B000000204B4908800023812229464A4807F0EB
:100B1000D9FC01204F4908704B4908707EE04E4EC9
:100B2000002426E0072000EB44003E49095C281918
:100B3000401E26F810102819401E36F810004FF6F7
:100B4000FF7101EA00212819401E26F8101000E06C
:100B500046E02819401E36F81000082101EB440138
:100B6000304A515C08432919491E26F81100601CBF
:100B7000C4B2B4EB690FD5DB38480078012803D044
:100B800036480078052804D101202F4908703449DF
:100B900008703148C08A18B101203249087002E05B
:100BA0000020304908703048007878B901202E497B
:100BB00008702549087000201D4908800023832201
:100BC0004FF6FF711C4807F07DFC27E00020184914
:100BD0000880002381222946174807F073FC1DE096
:100BE000B8F1000F1AD000231A461946124807F030
:100BF00069FC13E000231A4601210F4807F062FC4C
:100C00000CE000231A4603210B4807F05BFC05E0CB
:100C100000231A460221084807F054FCBDE8F09F63
:100C200019000020B80400201A0000202A04002027
:100C3000300400207605002028050020080400204C
:100C40002C0400202D040020E00300200C040020D0
:100C50003A050020EA03002048050020F8030020A0
:100C60002F0400200E0400202E04002070472DE9E0
:100C7000F04F87B080468A4616469946002753E1D2
:100C800019F80700202879DB19F807007E2875DCA1
:100C900019F8070020384FF4005101EB001B102217
:100CA000594601A807F0E6FA002507E1C02009F03F
:100CB000B5FAC02009F0E4FA0AF1B8012944C8B233
:100CC00009F0ACFA0AF1B8012944C8B209F0D8FA1F
:100CD000382E3BDA06F14001C8B209F09FFA002431
:100CE00031E00AEB0500072814DAB8F1000F07D14C
:100CF000082101FB054101AA505C09F0F3FA20E04C
:100D0000082101FB054101AA515CC943C8B209F0A1
:100D1000E9FA16E0B8F1000F09D1082101FB0541FD
:100D200001AA515C01F07F0009F0DCFA09E008211A
:100D300001FB054101AA525C7F2121EA020009F072
:100D4000D1FA601C84B2082CCBDBB5E0402E7ADAF5
:100D500006F14001C8B209F061FA002432E00AEB62
:100D60000500072815DAB8F1000F08D1082101FBAA
:100D7000054101AA505C09F0B5FA21E0A7E008217D
:100D800001FB054101AA515CC943C8B209F0AAFAA6
:100D900016E0B8F1000F09D1082101FB054101AAB5
:100DA000515C01F07F0009F09DFA09E0082101FB88
:100DB000054101AA525C7F2121EA020009F092FA62
:100DC000601C84B2C6F14000A042C8DC402009F09B
:100DD00057FAC6F1400084B231E00AEB050007285B
:100DE00014DAB8F1000F07D1082101FB054101AA6F
:100DF000505C09F0A9FA20E0082101FB054101AA95
:100E0000515CC943C8B209F09FFA16E0B8F1000F6F
:100E100009D1082101FB054101AA515C01F07F00C5
:100E200009F092FA09E0082101FB054101AA525C90
:100E30007F2121EA020009F087FA601C84B2082CA5
:100E4000CBDB39E0FFE7F0B209F01AFA002431E019
:100E50000AEB0500072814DAB8F1000F07D10821C2
:100E600001FB054101AA505C09F06EFA20E008215F
:100E700001FB054101AA515CC943C8B209F064FAFB
:100E800016E0B8F1000F09D1082101FB054101AAC4
:100E9000515C01F07F0009F057FA09E0082101FBDD
:100EA000054101AA525C7F2121EA020009F04CFAB7
:100EB000601C84B2082CCBDB681C85B2022DFFF6C7
:100EC000F5AE781C87B206F10800C6B22CE019F81E
:100ED0000700A02828DD781C19F80000A02823DDD1
:100EE000781C19F8001019F80700B038C0EB001290
:100EF00002EB401001EB4000A0F1A10B0BEB4B000B
:100F00004FEAC00B0BF5405B1822594601A807F0C9
:100F1000B1F901AB32465146404608F0CFFA06F12E
:100F20000D00C6B2B81C87B219F80700002802DD10
:100F3000782E7FF7A5AE07B0BDE8F08F2DE9F0431E
:100F400087B08146884616461C46002528E0605D2D
:100F5000A02823DD681C205CA0281FDD681C215C04
:100F6000605DB038C0EB001202EB401001EB4000B6
:100F7000A0F1A10707EB4700C70007F5405718226B
:100F8000394601A807F076F9F2B208F0FF0101AB8B
:100F9000484608F093FA06F10D0086B2A81CC5B2C7
:100FA000605D002801DD782ED1DD07B0BDE8F0835B
:100FB0002DE9FF5F80460E469946DDE90E54E9179C
:100FC00005EB5171C910A5EBC10131B92846E917EC
:100FD00005EB5171C1F3C70B07E02846E91705EB94
:100FE0005171C910491C01F0FF0B4FF0000A80E05D
:100FF000C02009F013F9C02009F042F90299B83174
:101000005144C8B209F00AF90299B8315144C8B242
:1010100009F036F906EB0900402818DA06F140011C
:10102000C8B209F0FBF800270EE0B8F1000F03D1B9
:10103000207809F057F904E02178C943C8B209F0D3
:1010400051F9641C781CC7B24F45EEDB4DE0402ED1
:1010500035DA06F14001C8B209F0E0F800270EE0E9
:10106000B8F1000F03D1207809F03CF904E02178B1
:10107000C943C8B209F036F9641C781CC7B2A6F19E
:101080003000C0F11000B842EADC402009F0F8F866
:1010900000270EE0B8F1000F03D1207809F054F9D1
:1010A00004E02178C943C8B209F04EF9641C781CE9
:1010B000C7B209EB06004038B842EBDC15E0F0B2ED
:1010C00009F0DEF800270EE0B8F1000F03D1207818
:1010D00009F03AF904E02178C943C8B209F034F9BB
:1010E000641C781CC7B24F45EEDB0AF1010000F02A
:1010F000FF0ADA45FFF67CAFBDE8FF9F2DE9FF4709
:101100000646884617469946B9F1000F76DD782FD6
:1011100074DCB9F1200F71DBB9F17E0FF8DCA9F1B5
:1011200020004FF4005101EB001A1022514668468E
:1011300007F0A0F80024F7E0C02009F06FF8C02005
:1011400009F09EF808F1B8012144C8B209F066F828
:1011500008F1B8012144C8B209F092F8382F37DA03
:1011600007F14001C8B209F059F800252DE008EB5D
:101170000400072812DA3EB9082101FB04511DF8CA
:10118000010009F0AFF81EE0082101FB04511DF831
:101190000110C943C8B209F0A5F814E04EB90821FE
:1011A00001FB04511DF8011001F07F0009F09AF8CD
:1011B00009E0082101FB04511DF801207F2121EAEB
:1011C000020009F08FF8681C85B2082DCFDBA9E07A
:1011D000402F72DA07F14001C8B209F01FF800256C
:1011E0002EE008EB0400072813DA46B9082101FBBA
:1011F00004511DF8010009F075F81FE097E008217F
:1012000001FB04511DF80110C943C8B209F06AF886
:1012100014E04EB9082101FB04511DF8011001F042
:101220007F0009F05FF809E0082101FB04511DF877
:1012300001207F2121EA020009F054F8681C85B2E0
:10124000C7F14000A842CCDC402009F019F8C7F1F2
:10125000400085B22DE008EB0400072812DA3EB901
:10126000082101FB04511DF8010009F06DF81EE092
:10127000082101FB04511DF80110C943C8B209F04F
:1012800063F814E04EB9082101FB04511DF8011068
:1012900001F07F0009F058F809E0082101FB045132
:1012A0001DF801207F2121EA020009F04DF8681C99
:1012B00085B2082DCFDB35E0FFE7F8B208F0E0FF9C
:1012C00000252DE008EB0400072812DA3EB90821BA
:1012D00001FB04511DF8010009F036F81EE0082159
:1012E00001FB04511DF80110C943C8B209F02CF8E4
:1012F00014E04EB9082101FB04511DF8011001F062
:101300007F0009F021F809E0082101FB04511DF8D4
:1013100001207F2121EA020009F016F8681C85B23D
:10132000082DCFDB601C84B2022CFFF605AFBDE8B0
:10133000FF87000030B585B0044681A000680490A6
:10134000002000900190029003907E48C08A7E4960
:101350000988884276D07B48C08A7B490880002073
:101360007A490870FFF70CF8002510E07548C08A2C
:101370000121A940084040B1744909780DF8015095
:1013800072480078401C71490870681CC5B2102D65
:10139000ECDB6E48007802287DDDA01C6B490978E3
:1013A000884205DA6A4B6B220421002008F086F897
:1013B000002C05DD674B6B220221002008F07EF82F
:1013C000601C0A280FDA3030C0B28DF810002E20D1
:1013D0008DF8110000208DF8120004AB14220221B8
:1013E00008F002FA1BE0601C0A2190FBF1F030309B
:1013F000C0B28DF81000601C90FBF1F201FB1200EE
:101400003030C0B28DF811002E208DF8120000206F
:101410008DF8130004AB0E22022108F0E5F9A01CA0
:101420000A2810DA3030C0B28DF810002E208DF866
:10143000110000208DF8120004AB1422042108F0E2
:10144000D3F91CE07AE0A01C0A2190FBF1F03030C7
:10145000C0B28DF81000A01C90FBF1F201FB12004D
:101460003030C0B28DF811002E208DF8120000200F
:101470008DF8130004AB0E22042108F0B5F91DF815
:10148000040000EB400101EBC00033494318202267
:101490000221002000E010E0FFF7E9FB601C1DF8CE
:1014A000000000EB400101EBC0002B494318202253
:1014B00004210020FFF7DBFB3DE0244800780228F0
:1014C00026D126A314220221002008F08DF924A39E
:1014D00014220421002008F087F99DF8000000EB99
:1014E000400101EBC0001C494318202202210020CA
:1014F000FFF7BDFB9DF8010000EB400101EBC000D0
:1015000015494318202204210020FFF7B0FB12E008
:1015100012A314220321002008F066F99DF80000B0
:1015200000EB400101EBC0000B49431820220321CE
:101530000020FFF79CFB01200A49087005B030BD70
:10154000002E000048050020E4030020E3030020F3
:101550005C000020740000205C030020312E00009D
:10156000322E0000E203002070B5044615480078D2
:10157000002825D10120134908705A20124908700B
:10158000A5204870082088708120C870002008714C
:101590000E204871022088712012C8710C72092136
:1015A000094807F04FFF05462812074948728D7217
:1015B0000B20FEF7C3FE0020044908700449088090
:1015C00070BD0000E603002054040020EA03002060
:1015D0002A04002070B58AB006460C46AFA0006809
:1015E00004900020009001900290039032208DF82A
:1015F000140030208DF81500A9480078302101EB47
:1016000020108DF81600A648007800F00F0030304A
:101610008DF817002D208DF81800A148407801EBB7
:1016200020108DF819009E48407800F00F003030EF
:101630008DF81A002D208DF81B009948807801EB59
:1016400020108DF81C009648807800F00F00303094
:101650008DF81D0020208DF81E009148C07801EB08
:1016600020108DF81F008E48C07800F00F00303039
:101670008DF820003A208DF821008948007901EB8F
:1016800020108DF822008648007900F00F003030DD
:101690008DF8230000208DF8240005AB02221146AE
:1016A00008F0A2F800207F490870002510E07C486F
:1016B00040890121A940084040B17A4909780DF8D4
:1016C000015078480078401C76490870681CC5B203
:1016D000102DECDB7348007802287CDD2078801C1C
:1016E00070490978884205DA6F4B6B220621002089
:1016F00007F0E4FE2078002805DD6C4B6B22042106
:10170000002007F0DBFE2078401C0A2810DA207841
:101710003130C0B28DF810002E208DF8110000205D
:101720008DF8120004AB1422042108F05DF81DE0CE
:101730002078401C0A2190FBF1F03030C0B28DF8C7
:1017400010002078401C90FBF1F201FB12003030B9
:10175000C0B28DF811002E208DF8120000208DF8F7
:10176000130004AB0E22042108F03EF82078801C00
:101770000A2810DA20783230C0B28DF810002E20FE
:101780008DF8110000208DF8120004AB1422062100
:1017900008F02AF81DE02078801C0A2190FBF1F067
:1017A0003030C0B28DF810002078801C90FBF1F230
:1017B00001FB12003030C0B28DF811002E208DF8E0
:1017C000120000208DF8130004AB0E22062108F051
:1017D0000BF8207800E01CE01DF8000000EB400151
:1017E00001EBC00032494318202204210020FFF7FA
:1017F0003EFA2078401C1DF8000000EB400101EB90
:10180000C0002B494318202206210020FFF72FFAA1
:1018100041E024480078022826D126A3142204217E
:10182000002007F0E1FF24A314220621002007F086
:10183000DBFF9DF8000000EB400101EBC0001C49FC
:101840004318202204210020FFF711FA9DF801001F
:1018500000EB400101EBC00015494318202206218E
:101860000020FFF704FA16E00E480078012812D194
:1018700010A314220421002007F0B6FF9DF80000F9
:1018800000EB400101EBC00009494318202204216C
:101890000020FFF7ECF90AB070BD0000002E000038
:1018A0003A050020E30300205C00002074000020C3
:1018B0005C030020312E0000322E00001CB50A21EE
:1018C00001A808F092FA044604B931E09DF804003A
:1018D000AA2815D10B21684608F087FA044604B9F6
:1018E00026E09DF80000122801DD122000909DF8EE
:1018F00000200C210F4808F039FA0446B4B917E06B
:101900000A21AA2008F0E8FA044604B910E00B21E5
:10191000122008F0E1FA044604B909E012220C2171
:10192000044808F092FA044604B901E001201CBD05
:101930000020FCE73404002001460120704700002D
:1019400010B50A21AA2008F0C7FA044604B910E02D
:101950000B21122008F0C0FA044604B909E0122253
:101960000C21054808F071FA044604B901E0012091
:1019700010BD0020FCE700003404002008B5012160
:10198000082006F0F1F94FF40070ADF800001820BF
:101990008DF8030003208DF802006946014800F02D
:1019A00091F808BD000C014000B587B0012104206A
:1019B00006F0CAF90920ADF804004720ADF8000090
:1019C0000020ADF80600ADF802008DF80800694669
:1019D0000D4807F073F86020ADF80C000120ADF859
:1019E0000E000020ADF81400ADF8120003A906485F
:1019F00007F018F80821044807F052F801210248BE
:101A000006F0EAFF07B000BD0008004008B501215C
:101A1000042006F0A9F90121082006F0A5F94FF4E9
:101A20008070ADF8000003208DF8020010208DF8C2
:101A300003006946084800F045F84CF2FF70ADF825
:101A4000000003208DF8020010208DF80300694685
:101A5000024800F037F808BD0008014000100140BE
:101A600008B50121082006F07FF94FF48060ADF839
:101A7000000003208DF8020014208DF80300694651
:101A8000084800F01FF84FF40060ADF80000032094
:101A90008DF8020014208DF803006946014800F01B
:101AA00011F808BD000C014008B50120ADF8000098
:101AB00048208DF803006946014800F003F808BD8E
:101AC000001001402DE9F0410246002500260020CB
:101AD00000230024002791F803C00CF00F0591F8B3
:101AE00003C00CF0100CBCF1000F03D091F802C041
:101AF0004CEA050591F800C0BCF1000F31D0146824
:101B000000202BE04FF0010C0CFA00F3B1F800C0FC
:101B10000CEA03069E4220D183004FF00F0C0CFA12
:101B200003F7BC4305FA03FC4CEA040491F803C034
:101B3000BCF1280F06D14FF0010C0CFA00FCC2F8E2
:101B400014C00AE091F803C0BCF1480F05D14FF072
:101B5000010C0CFA00FCC2F810C0401C0828D1D3BC
:101B60001460B1F800C0BCF1FF0F34DD54680020F0
:101B70002EE000F1080C4FF0010808FA0CF3B1F860
:101B800000C00CEA03069E4221D183004FF00F0CE7
:101B90000CFA03F7BC4305FA03FC4CEA040491F881
:101BA00003C0BCF1280F05D100F1080C08FA0CF8AD
:101BB000C2F8148091F803C0BCF1480F07D100F1BE
:101BC000080C4FF0010808FA0CF8C2F81080401C0D
:101BD0000828CED35460BDE8F0810000F0B50A4675
:101BE000002300240021002500F00046B6F1004F3C
:101BF00002D11D4EF16901E01B4E7168C0F303452F
:101C000083B200F44016B6F5401F08D121F0706190
:101C1000154E766826F07066134F7E6012E000F471
:101C20008016B6F5801F06D1032606FA05F4A143F7
:101C300041F0706106E0460D360103FA06F6B14345
:101C400041F0706122B1460D360103FA06F63143C8
:101C500000F00046B6F1004F02D1034EF16101E001
:101C6000014E7160F0BD00000000014002460020FE
:101C700093680B400BB1012000E0002070474161E8
:101C800070470161704710B5FFF7C0FE08F05CFABD
:101C9000002007F0ADFA10BD00BFFEE770B50546A5
:101CA00018480088A8422BDD0020164908805A20D9
:101CB00015490870A52048700B2088708020C870D6
:101CC0000020087148710520887110488079C8711A
:101CD0000E48407908720D48007948720B488078A8
:101CE00088720A484078C8720C21074807F0AAFB9E
:101CF00004462012044908734C730E20FEF71EFBA5
:101D000070BD00002A0400205404002010040020AC
:101D100010B54FF480600C49086000F063F94FF48F
:101D200000600949086000F05DF94FF480600649E1
:101D3000091F086000F056F94FF4806002490860FE
:101D400000F050F910BD0000140C014010B54FF424
:101D500080600C49086000F045F94FF400600949C3
:101D6000091F086000F03EF94FF480600549091F23
:101D7000086000F037F94FF480600249086000F015
:101D800031F910BD140C01402DE9F04105460E4615
:101D900017461C4600F086F8284600F055F800F07B
:101DA000C7F820B900F0A6F80020BDE8F081304661
:101DB00000F04AF800F0BCF800F074F8691CC8B2F2
:101DC00000F042F800F0B4F805E000F011F82070DF
:101DD000FFF79EFF641C781EC0B2071EF5DC00F002
:101DE00007F82070FFF7B2FF00F084F80120DCE76D
:101DF00070B50825002428021249086016E0600624
:101E0000040E4FF480600F49091D086000F0EAF8E5
:101E10004FF480600B49086000F0E4F80948083886
:101E2000006800F4006008B144F001042800A5F146
:101E30000101CDB2E3D14FF480600249091D086071
:101E4000204670BD100C014070B5044608251DE009
:101E50004FF480601249086000F0C4F804F080007C
:101E600028B14FF400600E49091F086003E04FF4E9
:101E700000600B4908606006040E00F0B3F84FF4F0
:101E800080600749091F086000F0ACF82800A5F140
:101E90000101CDB2DCD14FF480600149086070BD12
:101EA000140C014010B54FF400601149086000F0B7
:101EB00099F84FF480600E49086000F093F80C48E0
:101EC0000838006800F4006008B9002010BD4FF425
:101ED00000600749091D086000F084F84FF4806035
:101EE0000349091D086000F07DF80120EEE70000BD
:101EF000100C014010B54FF480600C49086000F0F0
:101F000071F84FF400600949086000F06BF84FF475
:101F100080600649091F086000F064F84FF4006013
:101F20000249091F086000F05DF810BD140C014063
:101F300010B54FF480601249086000F053F84FF478
:101F400000600F49091F086000F04CF84FF48060F2
:101F50000B49091F086000F045F809480C38006873
:101F600000F4006028B14FF480600549086000204B
:101F700010BD4FF48060024908600120F8E70000BE
:101F8000140C01402DE9F04104460E4617461D464B
:101F9000642C01D107F05AF9FFF784FF2046FFF7C0
:101FA00053FFFFF7C5FF20B9FFF7A4FF0020BDE8EE
:101FB000F0813046FFF748FFFFF7BAFF05E015F85C
:101FC000010BFFF741FFFFF7A3FE381EA7F1010148
:101FD000CFB2F4DCFFF78EFF642C01D107F013F9C8
:101FE0000120E4E7322001E0411EC8B20028FBD105
:101FF000704710B5FFF734FD10BD70B505460C46AF
:1020000045F2555000F03EF8284600F02FF82046E3
:1020100000F032F800F022F800F002F870BD000085
:102020004CF6CC4001490860704700000030004089
:1020300010B5044604480088A04204DD002002498F
:10204000088000F00BF810BD2804002010B540F205
:1020500071210420FFF7D1FF10BD00004AF6AA202D
:1020600001490860704700000030004001494860A5
:102070007047000000300040014988607047000050
:102080000030004001490860704700000030004007
:1020900000B587B00A2002F057F9F74800880028F9
:1020A00002F0E080F5480078FF2842F0DB80F44839
:1020B0000078252882F0CC80DFE810F0250027008A
:1020C000A5002801980147029502F1021C0359035B
:1020D0009603F904C405980610078A07D507D607A2
:1020E000A80820097A09F90A230C0C0D860DFE0DAB
:1020F000BF0E0B0F0C0F0D0F0E0F0F0F100F110F48
:10210000AB0F3610C91002F0A3B8DB48018840F2CB
:10211000EF12881A914253D010DC40F27F12A1EBEB
:10212000020091423CD004DCBF294CD0FF2968D189
:1021300048E0402845D0602863D123E00E2822D013
:1021400004DC08281DD00C285BD119E00F2805D02D
:10215000A0F5FE400F38002853D143E0C94800786D
:1021600001280CD10220C64908700020C649087019
:10217000C6490870C64908700120C649087040E089
:102180003FE03EE03DE0C448C08A40B1BE48007830
:10219000002804DDBC480078401EBB49087030E0D0
:1021A000BD48C08A58B1BD480078801EB64909783C
:1021B000884204DDB4480078401CB349087020E030
:1021C0001FE01EE01DE00120B04908700020B0496A
:1021D0000870B04908700220A94908700020AA4977
:1021E00008700EE00120AA4908700020A749087075
:1021F000A84908700220A24908700020A24908706E
:1022000000BF00BF7FE79C48008840F2EF12811AB0
:10221000904276D00ADCFF2875D0A0F27F1000280B
:102220005ED040286ED060286ED147E0082941D0AA
:102230000C2938D00E2945D00F2965D19248007855
:1022400005282ED2DFE800F0030A151F2600032020
:102250008B49087000208C49087022E004208849CE
:1022600008700020884908708D4908808D490870E1
:1022700017E005208249087000208349087001207A
:10228000894908700DE006207D49087000207E49CC
:10229000087006E007207A49087000207A49087023
:1022A00000BF00BF30E0012075490870002076496A
:1022B000087029E000207449087025E00420724964
:1022C000087021E070480078002805DD6E4800782D
:1022D000401E6D49087002E004206B49087013E04D
:1022E00069480078042808DA67480078401C664985
:1022F000087005E005E006E004E00020624908708F
:1023000002E001E000E000BF00BFFCE65A480088A0
:1023100040F2EF12811A904263D009DCFF2862D0AC
:10232000A0F27F1088B340285CD060285CD138E0F0
:10233000082932D00C2929D00E2936D00F2953D1A3
:102340005148007820B101280CD002281BD110E0A0
:102350000A204B49087000204B490870012053495E
:10236000087010E0122046490870002046490870A5
:1023700009E00A2042490870002043490870022001
:102380004A49087000BF00BF2EE01CE002203C4913
:10239000087000203C49087026E000203A49087087
:1023A00022E00220384908701EE0374800780028F3
:1023B00005DD35480078401E3349087002E00220F0
:1023C0003149087010E030480078022805DA2E48BC
:1023D0000078401C2C49087002E000202A4908704F
:1023E00002E001E000E000BF00BF8CE62248008868
:1023F00040F2EF12811A904271D009DCFF286FD0B1
:10240000A0F27F10B0B340286BD0602808D11EE046
:1024100008290DD00C2904D00E2949D00F29FFD14D
:1024200091E00220164908700020174908708AE0E0
:102430001B480088002809DD19480088401E1849FB
:1024400008800020174908700F4908707BE0124887
:10245000418B13480088401C81420ADD00200A4954
:1024600008700F480088401C0D49088000200D4965
:10247000087068E036E00000F00300200804002047
:10248000F80300202E040020F90300200604002099
:10249000070400200504002048050020E303002075
:1024A000E8030020E6030020EB030020FA030020ED
:1024B000FA480078002805DDF8480078401EF74902
:1024C00008700BE0F6480088002807DDF448008813
:1024D000401EF34908800020F249087033E02FE0E5
:1024E00030E02EE0F0480078C01EEC4909788842C0
:1024F00020DAEE48418BEA480088401C81420BDD1F
:102500000020E6490870E6480088401CE44908803D
:102510000020E449087012E0E3480078012805DD56
:10252000E1480078801EDD49087008E00020DB49A2
:10253000087004E0D9480078401CD849087002E0CF
:1025400001E000E000BF00BFDDE5D948008840F2AF
:10255000EF12811A90423ED009DCFF283DD0A0F254
:102560007F1050B3402837D0602837D113E00829B6
:102570000DD00C2904D00E2911D00F292ED12DE019
:102580000220CC4908700020C449087026E00020D1
:10259000C249087022E00220C04908701EE0BF480E
:1025A0000078002805DDBD480078401EBB49087052
:1025B00002E00220B949087010E0B848007802280B
:1025C00005DAB6480078401CB449087002E00020E3
:1025D000B249087002E001E000E000BF00BF012046
:1025E000B54908708FE5B248008840F2EF12811AB1
:1025F00090424FD009DCFF284ED0A0F27F10B0B33C
:10260000402848D0602848D123E008291DD00C2953
:1026100014D00E2921D00F293FD1A048007830B91D
:102620000820A449087000209C49087005E0092092
:10263000A04908700020994908702EE002209D49A9
:10264000087000209549087027E000209349087021
:1026500023E00120914908701FE09048007800288D
:1026600006DD8E480078401E8C49087003E003E0C8
:1026700001208A49087010E088480078012805DAAE
:1026800086480078401C8549087002E00020834994
:10269000087002E001E000E000BF00BF33E58448BD
:1026A000008840F2EF12811A90421ED009DCFF2808
:1026B0001DD0A0F27F10B8B1402817D0602817D1E4
:1026C00010E008290DD00C2904D00E290BD00F29B9
:1026D0000ED10DE002207749087000206F49087084
:1026E00006E005E004E003E002E001E000E000BFF6
:1026F00000BF08E56E48008840F2EF12811A904250
:1027000030D009DCFF282FD0A0F27F1000B3402882
:1027100029D0602829D110E008290DD00C2904D037
:102720000E290BD00F2920D11FE006206149087027
:1027300000205A49087018E017E016E05748007862
:10274000002804DD55480078401E544908700CE00C
:10275000524800780F2804DA50480078401C4F494E
:10276000087002E001E000E000BF00BFCBE4504889
:10277000008840F2EF12811A904230D009DCFF2825
:102780002FD0A0F27F1000B3402829D0602829D193
:1027900010E008290DD00C2904D00E290BD00F29E8
:1027A00020D11FE006204349087000203B490870F3
:1027B00018E017E016E039480078002804DD3748B3
:1027C0000078401E354908700CE0344800780E2827
:1027D00004DA32480078401C3049087002E001E019
:1027E00000E000BF00BF8EE43148008840F2EF12E5
:1027F000811A904251D009DCFF2867D0A0F27F10E7
:10280000B0B3402877D0602869D18FE008297FD005
:102810000C2965D00E2970D00F2960D12748007887
:10282000012804D0022814D0032857D128E02448D6
:1028300000887B2806D10B201E490870002017490C
:10284000087002E00F201F49087000201C49088012
:1028500044E01B48008840F21F21884209D115201E
:102860001449087000200D4908701749087003E0EA
:10287000CDE00F20134908700020114908802DE099
:102880000F48008840F29A21884220D11B20094934
:1028900008700020014908701CE003E1F9030020E2
:1028A000E8030020E6030020E303002048050020A1
:1028B000F0030020F8030020EB030020FA030020BF
:1028C000FC0300200804002004040020ECE00F209A
:1028D000FA4908700020FA49088000BF00BFE4E010
:1028E000F8480078032809D11520F749087000201E
:1028F000F649087008E0D6E00AE025E00320F24936
:1029000008700020F14908700020ED490880CCE0F3
:10291000EE480078002805DDEC480078401EEB49C1
:10292000087002E00220E9490870BEE0E74800783C
:10293000022805DAE5480078401CE449087002E006
:102940000020E2490870B0E0E048007820B101289A
:1029500017D0022859D13BE0D9480088B0F5617FF3
:1029600005DAD74800886430D549088008E0D448A3
:102970000088642190FBF1F201FB1200D04908802D
:1029800043E0CF480088642190FBF1F201FB120084
:102990000A2190FBF1F0092805DAC94800880A30BD
:1029A000C749088013E0C64800880A2190FBF1F26D
:1029B00001FB1200C2490988642291FBF2F101EB8C
:1029C000C10202EB011100EB8100BD4908801CE04F
:1029D000BB4800880A2190FBF1F201FB1200092894
:1029E00005DAB7480088401CB54908800CE0B448B7
:1029F00000880A2190FBF1F000EB80004FF6FF7198
:102A000001EA4000AE49088000BF00BF4DE0AF487A
:102A1000007820B1012816D0022841D12BE0A84827
:102A20000088642190FBF1F0002805DDA4480088AF
:102A30006438A349088005E0A148008800F561706A
:102A40009F4908802CE09E480088642190FBF1F2A9
:102A500001FB12000A2190FBF1F0002805DD9848E7
:102A600000880A389649088004E0954800885A3062
:102A70009349088014E0924800880A2190FBF1F203
:102A800001FB1200002805DD8D480088401E8C499E
:102A9000088004E08A48008809308949088000BF1E
:102AA00000BF02E001E000E000BF00BF2DE4884865
:102AB000008840F2EF12811A904278D009DCFF289A
:102AC00076D0A0F27F10A0B3402872D0602871D1D8
:102AD00093E008296FD00C296ED00E296DD00F29F4
:102AE00068D17A48007820B1012830D0022877D107
:102AF0004EE00C2074490870002074490870754835
:102B00000078012808D17448008874490880724808
:102B100040887349088019E072480078012809D17B
:102B2000714800886D4908806F4840886C4908806A
:102B30000CE074E06D480078012807D16C480088EB
:102B4000664908806A4840886549088048E00D2049
:102B50005D49087000205D4908705E4800780128D2
:102B600004D15D4840895D49088010E05D480078E7
:102B7000012804D15C4840895849088007E05B4837
:102B80000078012803D15A4840895449088027E039
:102B90000E204D49087000204C4908704D480078BF
:102BA00001280BD14C4880894C49088017E044E04B
:102BB00045E043E044E01CE014E022E049480078AE
:102BC000012804D1484880894449088007E04748E3
:102BD0000078012803D1464880894049088000BF19
:102BE00000BF2DE0032038490870002037490870E5
:102BF00026E000203549087022E0022033490870A1
:102C00001EE032480078002805DD30480078401E7C
:102C10002E49087002E002202C49087010E02B4871
:102C20000078022805DA29480078401C27490870F6
:102C300002E000202549087002E001E000E000BF4A
:102C400000BF81E42248008840F2EF12811A9042CE
:102C500075D009DCFF2873D0A0F27F1060B3402844
:102C60006FD0602857D172E0082960D00C2953D06A
:102C70000E2978D00F294ED11648007801280BD1A3
:102C8000164800881449088015480088488001F0DB
:102C90005DFD0A4908703EE012480078012829D1FC
:102CA0000E480088104908800D4800884880FEF7CB
:102CB00047FE024908702EE074E00000080400207E
:102CC000FC030020FA030020F8030020F903002091
:102CD000F00300200604002064050020FE0300200D
:102CE0000004002007040020340400200504002014
:102CF00076050020FA48007801280CD1F9480088B0
:102D0000F9490880F948008848800120F84908708E
:102D1000F020F849087067E00B20F74908700020A0
:102D2000F6490870EF490880F04908805CE0F348F4
:102D30000078012807D10020F049087006E050E033
:102D400051E04FE00FE00120EC4908704CE0EB4807
:102D50000078012803D10020E849087002E0012032
:102D6000E649087040E0E548007868B9DD48008829
:102D7000642805DADB480088401CDA49088010E046
:102D80000020D84908800CE0D8480088642805DA7B
:102D9000D6480088401CD549088002E00020D3496D
:102DA000088021E0D548007868B9CE48008800281E
:102DB00005DDCC480088401ECA49088010E0642028
:102DC000C84908800CE0C9480088002805DDC748CC
:102DD0000088401EC549088002E06420C34908807D
:102DE00002E001E000E000BF00BF57E4C4480088F3
:102DF00040F2EF12811A90426BD009DCFF286AD0B2
:102E0000A0F27F10A8B3402864D0602864D13DE0D0
:102E1000082936D00C292DD00E293BD00F295BD1A3
:102E2000B8480078012808D1AE480088B6494881E2
:102E300001F08CFCAF4908701AE0B4480078012812
:102E400008D1A8480088B2494881FEF779FDA94910
:102E500008700DE0A2480078012809D1A148008837
:102E6000A14948810120A2490870F020A1490870B9
:102E700032E01FE00B20A04908700020994908802B
:102E80002AE041F288309749088025E000209549E2
:102E9000088021E09348008841F22431884205DC13
:102EA0009048008864308F49088002E000208D49F6
:102EB000088011E08B480088642805DB8948008879
:102EC00064388849088003E041F2883085490880E9
:102ED00002E001E000E000BF00BF0AE4884800888B
:102EE00040F2EF12811A90426DD009DCFF286CD0BD
:102EF000A0F27F10A8B3402866D0602866D13FE0DA
:102F0000082938D00C292DD00E293DD00F295DD1AC
:102F10007C480078012808D1724800887A49888165
:102F200001F014FC734908701AE078480078012811
:102F300008D16C48008876498881FEF701FD6D490B
:102F400008700DE066480078012809D165480088BE
:102F500065498881012066490870F020654908703C
:102F600034E021E00B2064490870002063490870B8
:102F70005C4908802AE041F288305A49088025E0FF
:102F800000205849088021E05648008841F2243149
:102F9000884205DC5348008864305249088002E0CA
:102FA00000205049088011E04E480088642805DB65
:102FB0004C48008864384B49088003E041F288306F
:102FC0004849088002E001E000E000BF00BF0AE4D9
:102FD0004B48008840F2EF12811A90423ED009DC43
:102FE000FF283DD0A0F27F1050B3402837D0602892
:102FF00037D113E008290DD00C2904D00E2911D0A7
:103000000F292ED12DE00B203B49087000203549B7
:10301000088026E008203349088022E0002031495A
:1030200008801EE02F480088322805DA2D480088E5
:10303000401C2C49088002E000202A49088010E04A
:1030400028480088002805DD26480088401E2549BC
:10305000088002E032202349088002E001E000E01D
:1030600000BF00BF22E521E52548008840F2EF12AD
:10307000811A904273D009DCFF2871D0A0F27F1032
:1030800060B340286DD0602855D16FE008295ED02C
:103090000C2951D00E2976D00F294CD1194800782F
:1030A00001280BD10F480088174908800F48008875
:1030B000488001F04BFB0F4908703CE01348007852
:1030C000012827D10748008811490880074800884F
:1030D0004880FEF735FC074908702CE072E00000DC
:1030E00005040020FE030020280500200004002025
:1030F0003204002008040020F8030020F903002017
:10310000F0030020060400206405002007040020CE
:1031100034040020F848007801280CD1F7480088D2
:10312000F7490880F748008848800120F649087070
:10313000F020F649087067E00B20F5490870002080
:10314000F4490870ED490880EE4908805CE0F148D8
:103150000078012806D10020EE49087005E050E013
:1031600051E04FE00120EB4908704DE0E94800785C
:10317000012804D10020E749087003E003E00120A2
:10318000E449087040E0E348007868B9DB4800880B
:10319000642805DAD9480088401CD849088010E026
:1031A0000020D64908800CE0D6480088642805DA5B
:1031B000D4480088401CD349088002E00020D1494F
:1031C000088021E0D348007868B9CC4800880028FE
:1031D00005DDCA480088401EC849088010E0642008
:1031E000C64908800CE0C7480088002805DDC548AE
:1031F0000088401EC349088002E06420C14908805D
:1032000002E001E000E000BF00BF4FE4C2480088D8
:1032100040F2EF12811A90426BD009DCFF286AD08D
:10322000A0F27F10C8B3402864D0602864D140E089
:1032300008293AD00C2931D00E293ED00F295BD174
:10324000B448007818B91320B149087021E0B1489A
:103250000078012816D11420AD490870AF4804F059
:103260006DFEAE488079AE498871AC4840794871AE
:10327000AA4800790871A94880788870A7484078E2
:10328000487006E02320A2490870A64800789B49B0
:10329000088000209F4908702EE01CE003209C4914
:1032A000087000209B49087026E0002099490870AA
:1032B00022E00220974908701EE096480078002816
:1032C00005DD94480078401E9249087002E0022013
:1032D0009049087010E08F480078022805DA8D4880
:1032E0000078401C8B49087002E000208949087072
:1032F00002E001E000E000BF00BFA2E486480088D1
:1033000040F2EF12811A90424DD009DCFF284CD0D8
:10331000A0F27F1080B3402846D0602846D120E03C
:10332000082913D00C290AD00E2926D00F293DD107
:1033300012207749087000207649087036E0122084
:10334000734908700020734908702FE071480078B5
:1033500018B901206F49087002E000206D4908701B
:1033600024E06C48007818B901206A49087002E02E
:1033700000206849087019E00AE06648007818B92A
:1033800001206449087002E00020624908700DE0E5
:103390006048007818B901205E49087002E00020FA
:1033A0005C49087002E001E000E000BF00BF48E4B3
:1033B0005948008840F2EF12811A904275D009DC1A
:1033C000FF2873D0A0F27F10B8B340286FD06028D8
:1033D00013D128E0082918D00C290FD00E2931D09C
:1033E0000F290AD14E4804F0ECFD4849087012201C
:1033F0004749087000204749087056E112204449A7
:1034000008700020434908704FE1424800780028C6
:1034100005DD40480078401E3E49087002E0042067
:103420003C49087041E13B480078042806DA3948F5
:103430000078401C3749087003E0ABE000203549B4
:10344000087032E13348007805281DD2DFE800F02B
:10345000031D3A6C860032488079992811DA304889
:10346000807900F00F00092805D12D488079C01D12
:103470002B49887108E02A488079401C28498871C6
:1034800002E000202649887182E025484079122810
:1034900014DA2348407900F00F00092808D12048A9
:1034A0004079C01D1E4948710BE0FBE0FCE0FAE0EA
:1034B0001B484079401C1A49487102E00020184915
:1034C000487165E016480079312811DA144800790E
:1034D00000F00F00092805D111480079C01D1049DE
:1034E000087108E00E480079401C0D49087102E09F
:1034F00000200B4908714BE005040020FE0300206A
:1035000028050020000400203204002008040020C8
:10351000F8030020F9030020F0030020100400202D
:103520001704002047040020FE488078232811DA81
:10353000FC48807800F00F00092805D1F948807810
:10354000C01DF849887008E0F6488078401CF549AD
:10355000887002E00020F349887019E0F148407853
:10356000592811DAEF48407800F00F00092805D1FA
:10357000EC484078C01DEB49487008E0E9484078C5
:10358000401CE849487002E00020E649487000BF4E
:1035900000BF8AE0E448007805281CD2DFE800F08C
:1035A000031C354E6700DF488079002810DDDD48B8
:1035B000807900F00F0028B9DA488079C01FD94916
:1035C000887108E0D7488079401ED649887102E0AA
:1035D0009920D449887163E0D2484079002810DDF1
:1035E000D048407900F00F0028B9CE484079C01F7C
:1035F000CC49487108E0CB484079401EC949487120
:1036000002E01220C74948714AE0C6480079002804
:1036100010DDC448007900F00F0028B9C1480079D6
:10362000C01FC049087108E0BE480079401EBD496E
:10363000087102E03120BB49087131E0B948807857
:10364000002810DDB748807800F00F0028B9B54891
:103650008078C01FB349887008E0B2488078401E67
:10366000B049887002E02320AE49887018E0AD4868
:103670004078002810DDAB48407800F00F0028B9F2
:10368000A8484078C01FA749487008E0A54840787E
:10369000401EA449487002E05920A249487000BF6A
:1036A00000BF02E001E000E000BF00BF11E29F4860
:1036B000008840F2EF12811A904274D009DCFF2892
:1036C00072D0A0F27F10B8B340286ED060286DD1C0
:1036D000C6E008296BD00C296AD00E2969D00F29C1
:1036E00064D191480078082825D2DFE800F004264C
:1036F000476C8D949BA216208D4908708D480078E8
:10370000012804D18C48C0888C49088010E08C487E
:103710000078012804D18B48C0888849088007E0D8
:1037200089480078012803D18848C08883490880E7
:1037300000207D49087086E0BEE017207C490870B3
:103740007C480078012804D17B48008980490880A2
:1037500010E07B480078012804D17A4800897C4930
:10376000088007E078480078012803D1774800896D
:103770007749088000206C49087064E018206C4983
:1037800008706C480078012804D16B48C0897049E2
:10379000088017E06A48007801280BD16948C08981
:1037A0006B4908800EE0A7E0A8E0A6E0A7E053E0A0
:1037B0004BE061E064480078012803D16348C08988
:1037C000634908803FE01920594908700020564994
:1037D000087058480078012804D15748008A5C498D
:1037E000088010E056480078012804D15548008A26
:1037F0005749088007E054480078012803D153480E
:10380000008A534908801EE02120494908700020A1
:103810004549087017E022204549087000204249B8
:10382000087010E01A204249087000203E490870D4
:1038300009E00A203E49087003204649087000202C
:103840003949087000BF00BF59E0032038490870AB
:1038500000203549087052E00020334908704EE0DE
:103860003D480078012803D107202F49087002E065
:1038700006202D49087042E03748007801280DD114
:1038800029480078002805DD27480078401E264991
:10389000087010E00720244908700CE022480078E6
:1038A000002805DD20480078401E1F49087002E00E
:1038B00006201D49087022E02748007801280DD114
:1038C00019480078072805DA17480078401C16497F
:1038D000087010E00020144908700CE012480078CD
:1038E000062805DA10480078401C0F49087002E0ED
:1038F00000200D49087002E001E000E000BF00BFB9
:10390000E7E00A48008840F2EF12811A904272D034
:1039100026DCFF2870D0A0F27F10B0B340286CD016
:1039200060281BE017040020F9030020F0030020AA
:10393000F803002006040020640500200204002093
:103940000704002034040020050400207605002030
:10395000FE030020FA0300200404002031D169E0B6
:10396000082936D00C292DD00E2970D00F2928D146
:10397000F8480078012809D1F7480088F749C8803D
:1039800000F0E4FEF64908701BE090E0F54800788E
:10399000012808D1F0480088F349C880FDF7D0FF1E
:1039A000EF4908700DE0F1480078012809D1EA4894
:1039B0000088EF49C8800120EE490870F020E849EE
:1039C000087085E01520EC4908700020EB4908706C
:1039D0007EE0EA480078032810D1DF48008800F430
:1039E000004018B10020DC49088022E048F20700BE
:1039F000D94908801DE068E069E067E0DF480178A8
:103A000001208840D4490988084048B1DB48017842
:103A100001208840D04909888143CF48018008E0CF
:103A2000D648017801208840CB4909880843CA4913
:103A300008804DE0D148007803280ED1C6480088A0
:103A400000F4004020B10020C349088020E020E0BD
:103A500048F20700C04908801AE0C84801780120F0
:103A60008840BD490988084048B1C4480178012010
:103A70008840B94909888143B748018008E0BF48B8
:103A8000017801208840B44909880843B249088078
:103A90001EE0BA480078002805DDB8480078401ECE
:103AA000B649087002E00320B449087010E0B3483A
:103AB0000078032805DAB1480078401CAF49087047
:103AC00002E00020AD49087002E001E000E000BF24
:103AD00000BFBDE3AA48008840F2EF12811A90426D
:103AE0006DD009DCFF286CD0A0F27F10A8B340286D
:103AF00066D0602866D13FE0082938D00C292DD047
:103B00000E293DD00F295DD192480078012808D1B7
:103B10009C4800889149088100F018FE904908707F
:103B20001AE090480078012808D1964800888E490C
:103B30000881FDF705FF8A4908700DE08B48007881
:103B4000012809D18F4800888949088101208949C5
:103B50000870F0208249087034E021E01520864981
:103B60000870002085490870864908802AE041F2E3
:103B700088308449088025E000208249088021E0BF
:103B80008048008841F22431884205DC7D48008865
:103B900064307C49088002E000207A49088011E006
:103BA00078480088642805DB7648008864387549C1
:103BB000088003E041F288307249088002E001E0A9
:103BC00000E000BF00BF43E36D48008840F2EF1201
:103BD000811A90426BD009DCFF286AD0A0F27F10D6
:103BE000A8B3402864D0602864D13DE0082936D0CD
:103BF0000C292DD00E293BD00F295BD155480078D8
:103C0000012808D15F4800885449C88100F09EFD12
:103C1000534908701AE053480078012808D15948E0
:103C200000885149C881FDF78BFE4D4908700DE0B1
:103C30004E480078012809D1524800884C49C88173
:103C400001204C490870F0204549087032E01FE01F
:103C50001520494908700020484908702AE041F2BF
:103C600088304849088025E000204649088021E046
:103C70004448008841F22431884205DC41480088EC
:103C800064304049088002E000203E49088011E08D
:103C90003C480088642805DB3A4800886438394984
:103CA000088003E041F288303649088002E001E0F4
:103CB00000E000BF00BFCBE23148008840F2EF12C5
:103CC000811A904245D009DCFF286FD0A0F27F1006
:103CD000A8B340286BD0602830D173E0082953D0B6
:103CE0000C292DD00E297DD00F2927D11948007815
:103CF000012808D1234800881849088200F026FDD1
:103D0000174908701AE017480078012808D11D48A3
:103D1000008815490882FDF713FE114908700DE06F
:103D200012480078012809D11648008810490882F5
:103D3000012010490870F020094908707BE06BE011
:103D400015200D49087000200C4908700D490880A5
:103D500071E06DE0060400200204002064050020EC
:103D6000080400200704002034040020050400207B
:103D70002805002032040020F8030020F903002069
:103D8000F0030020FE030020FC4801780120884059
:103D9000FB490988084058B1F8480178012088405B
:103DA000F74909888143F64801800AE042E040E093
:103DB000F248017801208840F14909880843F04918
:103DC000088038E0ED48017801208840EC490988F6
:103DD000084058B1E948017801208840E84909883D
:103DE000814300E00CE0E648018008E0E348017808
:103DF00001208840E24909880843E14908801AE027
:103E0000DE480078012803D10020DC49087002E078
:103E10000120DA4908700EE0D8480078012803D163
:103E20000020D649087002E00120D449087002E061
:103E300001E000E000BF00BF0AE2D248008840F283
:103E4000EF12811A90423FD009DCFF283ED0A0F249
:103E50007F10A0B3402838D0602838D131E008293D
:103E60002ED00C2924D00E292CD00F292FD1C648B2
:103E70000078012807D1C5480178C54800F084FCC6
:103E8000C449087013E0C4480078012806D1BF482F
:103E90000078FDF751FDBF49087008E0BF48007881
:103EA000012804D1BE490870F020BA4908700EE01C
:103EB0001520BC4908700020B049087007E002E0F6
:103EC00005E004E003E002E001E000E000BF00BF25
:103ED000BEE1BDE1BCE1BBE1BAE1B9E1B8E1A948AD
:103EE000008840F2EF12811A90426ED009DCFF2860
:103EF0006CD0A0F27F10E0B3402868D0602854D185
:103F00005FE0082959D00C2950D00E2960D00F2924
:103F10007DD12120A3490870A34804F00FF89A48E6
:103F20000078012811D1A148C1680091008AADF83C
:103F3000040012229D4902A8FCF716F98F48007868
:103F400002A90EC904F0E0F82CE09348007801289B
:103F500013D18F48C1680091008AADF80400122285
:103F60008B4902A8FCF700F98448007802A90EC921
:103F700000E03BE004F0C8F814E08848007801282D
:103F800010D18B48C1680091008AADF8040012225C
:103F9000874902A8FCF7E8F87848007802A90EC91A
:103FA00004F0B2F800207549087030E015207D4912
:103FB000087000207149087029E000206F490870DE
:103FC00025E004206D49087021E01DE01EE01CE0A2
:103FD0006A480078002805DD68480078401E674977
:103FE000087002E004206549087010E0634800781A
:103FF000042805DA61480078401C6049087002E036
:1040000000205E49087002E001E000E000BF00BF50
:104010001EE15C48008840F2EF12811A90427ED087
:1040200009DCFF287DD0A0F27F1070B3402877D044
:10403000602877D150E008294AD00C2941D00E29B8
:104040004ED00F296ED15048007801281ED14B4820
:1040500001780120884057490978084088B14749CC
:10406000097801EBC101544A02EB41004749097844
:1040700000F08AFB4749087000F068FB454908706A
:104080001EE00020434908701AE037E042480078FB
:10409000012815D041480078012811D1374801780E
:1040A0000120884043490978084030B101203C494B
:1040B0000870F0203749087002E000203549087088
:1040C00030E015203749087000202C49087029E09D
:1040D00000202A49087025E004202849087021E0C2
:1040E00026480078002805DD24480078401E234932
:1040F000087002E004202149087013E01F4800788E
:10410000042808DA1D480078401C1C49087005E0A6
:1041100005E006E004E000201849087002E001E034
:1041200000E000BF00BF93E01648008840F2EF12A5
:10413000811A904271D009DCFF286FD0A0F27F1065
:10414000D8B140287FD060287FD14DE0082944D0E5
:104150000C2935D00E294ED00F2976D112201149C5
:104160000870002005490870054800781349087058
:1041700000F04AFA0749087067E051E0F9030020AF
:10418000FE030020F00300200604002004040020A9
:104190003404002008040020070400200504002047
:1041A00032040020F80300201004002064050020E1
:1041B00076050020460400208805002047040020E2
:1041C00012202B49087000202A4908702A490880CB
:1041D0002A480078FCF76AF837E000202649088072
:1041E0000878FCF763F830E0092023490880087854
:1041F000FCF75CF829E020480088092805DA1E4809
:104200000088401C1C49088002E000201A490880F0
:1042100019490878FCF74AF817E013E014E012E0B7
:1042200015480088002805DD13480088401E124903
:10423000088002E00920104908800F490878FCF73F
:1042400035F802E001E000E000BF00BF00E000BF81
:1042500000BF00200A4908800A49088001200A4955
:10426000087002E000200649088007B000BD000089
:10427000F8030020F9030020FE030020470400207B
:10428000F0030020E4030020E003002010B54FF409
:1042900080712948FDF7EAFC04464FF6FF7000EAFA
:1042A000440420212448FDF7E1FC04434FF6FF704D
:1042B00000EA440410212048FDF7D8FC04434FF6DF
:1042C000FF7000EA440408211B48FDF7CFFC0443BB
:1042D0004FF6FF7000EA440404211848FDF7C6FCBD
:1042E00004434FF6FF7000EA44044FF48051144831
:1042F000FDF7BCFC04434FF6FF7000EA44044FF4A2
:1043000080410D48FDF7B2FC04434FF6FF7000EA10
:1043100044044FF400410848FDF7A8FC04434FF65D
:10432000FF7000EA44044FF400410648FDF79EFC8C
:104330000443204610BD0000000C01400014014061
:10434000001001400008014010B5044634490978C6
:10435000A14263DD0021324A1170FFF797FF40F25E
:10436000FF1188424DD001212E4A11702E49098833
:1043700081423DD12D490978012903D102212B4ADF
:1043800011700AE029490978022906D10021274A3B
:10439000117025490988264A1180FE2814D1254923
:1043A000098840F6B832914238DB0021214A118059
:1043B0001C4A11700121204A11701B49098841F4DF
:1043C00000411B4A118029E01A490988B1F57A7F1A
:1043D00024DB4FF46171174A11800021114A1170DA
:1043E0000121154A117010490988114A118015E000
:1043F0000D49088000210F4A118001210B4A1170DC
:104400000CE008490978012908D10021054A1170FA
:10441000094A1170074A1180034A118010BD00003B
:10442000F6030020EE030020F4030020F703002031
:10443000F0030020EC030020F203002008B5012166
:104440003D2003F091FC01211748FDF7C7FB4FF415
:104450000040ADF8000048208DF80300694613487D
:10446000FDF730FB4CF23C10ADF8000048208DF811
:10447000030069460E48FDF725FB4FF48050ADF868
:10448000000048208DF8030069460A48FDF71AFB32
:104490000420ADF8000048208DF803006946064866
:1044A000FDF710FB08BD00000002300000080140CD
:1044B000000C0140001001400014014010B51948E3
:1044C0000078012804D141031748FDF7D8FB04E028
:1044D0004FF400511448FDF7D4FB1448008820B174
:1044E00001280BD002281BD111E001211048FDF753
:1044F000C8FB02210F48FDF7C4FB11E002210D4863
:10450000FDF7BFFB01210A48FDF7B9FB08E00221D6
:104510000848FDF7B4FB01210548FDF7B2FB00BFD9
:1045200000BF10BD0E04002000100140480500200F
:10453000000C01400008014008B54FF4006121481B
:10454000FDF79FFB4FF480511E48FDF798FB4FF499
:1045500000511D48FDF795FB01211A48FDF791FB1D
:1045600004211A48FDF78DFB02211848FDF789FB4D
:1045700001211648FDF785FB02211248FDF781FB5A
:1045800001211C2003F0F0FB41F60300ADF8000010
:1045900003208DF8020010208DF8030069460948B9
:1045A000FDF790FA0720ADF8000069460748FDF7CF
:1045B00089FA4FF40050ADF8000069460248FDF753
:1045C00081FA08BD0008014000100140000C0140C4
:1045D00038B50021684605F008FC044604B90FE030
:1045E0009DF80000AA2806D10121064805F0FDFB30
:1045F00004461CB904E0092002490870012038BDB6
:104600000020FCE74704002010B50021AA2005F097
:1046100063FC044604B909E001210548007805F06F
:104620005BFC044604B901E0012010BD0020FCE75A
:104630004704002010B5044600212046FCF76AF824
:1046400064212046FCF759F901212046FCF762F865
:1046500010BD00BFFEE7704770B5002100230F2298
:10466000C47804B3154C246804F4E064C4F5E06431
:10467000210AC1F10403CA40447804FA03F18478A2
:104680001440214309010E4C0678A155047804F02A
:104690001F050124AC4005786D11AD0005F1E02542
:1046A000C5F8004109E0047804F01F050124AC407E
:1046B000044D0678761145F8264070BD0CED00E0FB
:1046C00000E400E080E100E002490143024A116099
:1046D000704700000000FA050CED00E02DE9FC41F8
:1046E000322101A805F081FB054605B928E09DF8B7
:1046F0000400AA2815D13321684605F076FB05464B
:1047000005B91DE09DF80000122801DD122000907F
:104710009DF8002034210B4805F028FB054665B9BB
:104720000EE0084E084F002405E037F8140026F884
:104730001400601CC4B2092CF7DB0120BDE8FC8129
:104740000020FBE7640500203404002010B532216E
:10475000AA2005F0C1FB044604B910E03321122061
:1047600005F0BAFB044604B909E0122234210548D9
:1047700005F06BFB044604B901E0012010BD0020E8
:10478000FCE70000640500202DE9F04104460F46D7
:10479000054E09252A462146304604F0E1F9FFF787
:1047A000D5FFBDE8F08100006405002010B5044687
:1047B00004F0010020B180212E48FDF762FA03E0E9
:1047C00080212C48FDF75BFA04F0020020B1402163
:1047D0002848FDF756FA03E040212648FDF74FFA36
:1047E00004F0040020B120212248FDF74AFA03E03A
:1047F00020212048FDF743FA04F0080020B11021E1
:104800001C48FDF73EFA03E010211A48FDF737FA7D
:1048100004F0100020B108211648FDF732FA03E039
:1048200008211448FDF72BFA04F0200020B10421E0
:104830001048FDF726FA03E004210E48FDF71FFAA1
:1048400004F0400020B102210A48FDF71AFA03E003
:1048500002210848FDF713FA04F0800020B101217D
:104860000448FDF70EFA03E001210248FDF707FABC
:1048700010BD0000001001401CB505483021782310
:104880000122CDE9001003210020FCF791FB1CBDA3
:104890008C00002010B55A480078012803D1002070
:1048A0005749087002E0002004F0A2FC5548007847
:1048B000012804D100205349087005F00AFA524833
:1048C000007830B951A3042200210846FCF736FBDA
:1048D0004DE050A3042200210846FCF72FFB4F486F
:1048E000007800F0010030B14DA323220321002005
:1048F000FCF7BDF905E04BA3232203210020FCF7C0
:10490000B6F94648007800F0020030B144A32322F3
:1049100005210020FCF7ABF905E042A32322052185
:104920000020FCF7A4F93D48007800F0040030B105
:104930003BA3632203210020FCF799F905E039A38A
:10494000632203210020FCF792F93448007800F03C
:10495000080030B132A3632205210020FCF787F95B
:1049600005E030A3632205210020FCF780F92EA387
:1049700000220321104604F037FF2CA30722032155
:104980000020FCF774F92AA313220321002004F06D
:104990002BFF28A300220521104604F025FF23A3A6
:1049A000072205210020FCF762F921A3132205212B
:1049B000002004F019FF20A340220321002004F06E
:1049C00013FF1AA3472203210020FCF750F918A374
:1049D00053220321002004F007FF18A340220521E1
:1049E000002004F001FF11A3472205210020FCF75D
:1049F0003EF90FA353220521002004F0F5FE10BD5F
:104A00002F040020E20300202E040020C0EBCFDFA3
:104A100000000000BECDD0F70000000048050020D7
:104A2000BFAA0000B9D8000031000000C2B70000E2
:104A30003A000000320000003300000034000000A3
:104A400038B504460D46642094FBF0F03030C0B217
:104A50008DF80000642094FBF0F100FB11400A2166
:104A600090FBF1F03030C0B28DF801000A2094FBC9
:104A7000F0F100FB11403030C0B28DF80200002090
:104A800004F0B6FB25B1012D16D0022D3CD127E054
:104A90009DF80030242203210020FCF72FFB2A235D
:104AA0003A2203210020FCF729FB2A23502203216C
:104AB0000020FCF723FB27E02A23242203210020E7
:104AC000FCF71CFB9DF801303A2203210020FCF783
:104AD00015FB2A23502203210020FCF70FFB13E0D3
:104AE0002A23242203210020FCF708FB2A233A2250
:104AF00003210020FCF702FB9DF802305022032125
:104B00000020FCF7FBFA00BF00BF38BD10B504461B
:104B1000002004F06DFB47A3042200210846FCF7A7
:104B20000DFA24B1012C2DD0022C2AD155E0444B92
:104B30000A220221002004F08CFD42A31C22022143
:104B4000002004F051FE40A3282202210020FCF79F
:104B5000F5F940A31C220421002004F045FE3EA3E9
:104B6000282204210020FCF7E9F93EA31C2206219B
:104B7000002004F039FE3CA3282206210020FCF787
:104B8000DDF955E02E4B0A220421002004F061FDDE
:104B90002CA31C220221002004F026FE2AA3282296
:104BA00002210020FCF7CAF92AA31C2204210020BC
:104BB00004F01AFE28A3282204210020FCF7BEF9E5
:104BC00028A31C220621002004F00EFE26A3282282
:104BD00006210020FCF7B2F92AE0194B0A2206212F
:104BE000002004F036FD17A31C220221002004F04F
:104BF000FBFD15A3282202210020FCF79FF915A335
:104C00001C220421002004F0EFFD13A3282204211C
:104C10000020FCF793F913A31C220621002004F0C6
:104C2000E3FD11A3282206210020FCF787F900BF2D
:104C300000BF10BDBBF9B1BEC9E8D6C3000000007B
:104C40001C000020312E0000B3ACCEC2C9E8D6C390
:104C500000000000322E0000C6F4B6AFD1D3CAB1B6
:104C600000000000332E0000B6CFB5E7D1D3CAB1A3
:104C7000000000002DE9FC4105460E4614460127C0
:104C80004FF00008294601A8FBF7FCFB31466846B7
:104C9000FBF7F8FB002004F0ABFA27A32822002141
:104CA0000846FCF74BF927A300220421104604F024
:104CB000E1FE25A3192204210020FCF73FF924A3DB
:104CC000002206211046FCF739F9C4B901AB4C2289
:104CD0000421384604F0CEFE204B6A220421002035
:104CE00004F0B7FC6B464C220621404604F0C2FE9D
:104CF0001A4B6A220621002004F0ABFC19E0012CBB
:104D000017D101AB4C220421404604F0B3FE134BF3
:104D10006A220421002004F09CFC6B464C220621F0
:104D2000384604F0A7FE0D4B6A220621002004F04D
:104D300090FCBDE8FC810000B3ACCEC2C9E8D6C38C
:104D40000000000053435200CEC2B6C8000000006D
:104D5000D6F7BFD8CEC2B6C8000000003C00002085
:104D60001CB50446002004F043FA0BA328220021BE
:104D70000846FCF7E3F821B26846FBF7E9FB6B460F
:104D800028220321002004F075FE06A34A220321F5
:104D9000002004F06FFE1CBDC6F4B6AFD1D3CAB17B
:104DA000000000006D7300001CB50446002004F0F4
:104DB0001FFA0BA3282200210846FCF7BFF821B2F6
:104DC0006846FBF7C5FB6B4628220321002004F050
:104DD00051FE06A34A220321002004F04BFE1CBD15
:104DE000B6CFB5E7D1D3CAB1000000006D730000A3
:104DF00038B504460A2094FBF0F03030C0B28DF88C
:104E000000000A2094FBF0F100FB11403030C0B2EA
:104E10008DF80100002004F0EBF90DA3042200211D
:104E20000846FCF78BF89DF800302D220321002066
:104E3000FCF764F99DF80130392203210020FCF7CA
:104E40005DF92523452203210020FCF757F938BDE1
:104E5000C8FDCFE0CAA7BAE2CFB5CAFD0000000086
:104E60002DE9FC4105460E46144601274FF0000887
:104E7000294601A8FBF706FB31466846FBF702FB13
:104E8000002004F0B5F924A3282200210846FCF7ED
:104E900055F824A3002204211046FBF7E8FE23A3C3
:104EA000002206211046FCF749F8C4B901AB4C2298
:104EB0000421384604F0DEFD1F4B6A220421002045
:104EC00004F0C7FB6B464C220621404604F0D2FD9D
:104ED000194B6A220621002004F0BBFB19E0012CCB
:104EE00017D101AB4C220421404604F0C3FD124B04
:104EF0006A220421002004F0ACFB6B464C22062100
:104F0000384604F0B7FD0C4B6A220621002004F05D
:104F1000A0FBBDE8FC810000B9FDCEC2C9E8D6C344
:104F200000000000534352CEC2B6C800D6F7BFD827
:104F3000CEC2B6C8000000003C00002010B50446F8
:104F4000002004F055F947A3042200210846FBF78E
:104F5000F5FF24B1012C2DD0022C2AD155E0444B71
:104F60000A220221002004F074FB42A31C22022129
:104F7000002004F039FC40A3282202210020FBF786
:104F8000DDFF40A31C220421002004F02DFC3EA3E1
:104F9000282204210020FBF7D1FF3EA31C2206217A
:104FA000002004F021FC3CA3282206210020FBF76E
:104FB000C5FF55E02E4B0A220421002004F049FBD6
:104FC0002CA31C220221002004F00EFC2AA328227C
:104FD00002210020FBF7B2FF2AA31C22042100209B
:104FE00004F002FC28A3282204210020FBF7A6FFDE
:104FF00028A31C220621002004F0F6FB26A3282269
:1050000006210020FBF79AFF2AE0194B0A2206210D
:10501000002004F01EFB17A31C220221002004F034
:10502000E3FB15A3282202210020FBF787FF15A32D
:105030001C220421002004F0D7FB13A32822042102
:105040000020FBF77BFF13A31C220621002004F0A5
:10505000CBFB11A3282206210020FBF76FFF00BF26
:1050600000BF10BDCFD4CABEC9E8D6C3000000003F
:105070001C000020312E0000D3EFD1D4C9E8D6C3E4
:1050800000000000322E0000CAB1BCE4C9E8D6C35B
:1050900000000000332E0000C1C1B6C8C9E8D6C365
:1050A0000000000010B50446002004F0A1F825A37C
:1050B000042200210846FBF741FF14B1012C3ED128
:1050C0001EE0234B0A220221002004F0C2FA21A391
:1050D0001C220221002004F087FB1FA328220221AA
:1050E0000020FBF72BFF1FA31C220421002004F04B
:1050F0007BFB1DA328220421002004F0BBFC1EE042
:10510000134B0A220421002004F0A3FA11A31C224D
:105110000221002004F068FB0FA3282202210020B6
:10512000FBF70CFF0FA31C220421002004F05CFB02
:105130000DA328220421002004F09CFC00BF00BF26
:1051400010BD0000D3EFD1D4C9E8D6C300000000E1
:105150001C000020312E0000BCF2CCE5D6D0CEC41D
:1051600000000000322E0000456E676C6973680015
:1051700010B50446002004F03BF873A3042200217C
:105180000846FBF7DBFE052C2ED2DFE804F0032EE9
:105190005984AF006E4B0A220221002004F059FA14
:1051A0006CA31C220221002004F01EFB6AA328220B
:1051B00002210020FBF7C2FE69A31C22042100206B
:1051C00004F012FB67A3282204210020FBF7B6FE9F
:1051D00067A31C220621002004F006FB65A32822F9
:1051E00006210020FBF7AAFEABE0594B0A2204215E
:1051F000002004F02EFA57A31C220221002004F004
:10520000F3FA55A3282202210020FBF797FE54A3AE
:105210001C220421002004F0E7FA52A328220421D2
:105220000020FBF78BFE52A31C220621002004F075
:10523000DBFA50A3282206210020FBF77FFE80E046
:10524000434B0A220621002004F003FA41A31C224A
:105250000221002004F0C8FA3FA3282202210020E6
:10526000FBF76CFE3EA31C220421002004F0BCFAD4
:105270003CA3282204210020FBF760FE3CA31C2253
:105280000621002004F0B0FA3AA3282206210020CB
:10529000FBF754FE55E02E4B0A220621002004F0B5
:1052A000D8F92FA31C220221002004F09DFA2DA37F
:1052B000282202210020FBF741FE2DA31C220421FD
:1052C000002004F091FA2BA3282204210020FBF7F0
:1052D00035FE2BA31C220621002004F085FA29A309
:1052E000282206210020FBF729FE2AE0184B0A227B
:1052F0000621002004F0ADF91DA31C22022100208C
:1053000004F072FA1BA3282202210020FBF716FEEC
:105310001BA31C220421002004F066FA19A32822F2
:1053200004210020FBF70AFE18A31C2206210020FE
:1053300004F05AFA16A3282206210020FBF7FEFDEE
:1053400000BF00BF10BD0000D6F7B2CBB5A500006E
:105350001C000020312E0000C9E8D6C30000000068
:10536000322E0000B9CAD5CFB2E9D1AF000000009B
:10537000332E0000D7B4CCACD0C5CFA200000000C3
:10538000342E0000B0EFD6FA00000000352E0000E9
:10539000B9D8D3DA0000000077B587B004460125FC
:1053A000002632208DF8140030208DF815009DF86D
:1053B0002600302101EB20108DF816009DF8260004
:1053C00000F00F0030308DF8170000208DF8180025
:1053D0009DF8250001EB20108DF810009DF82500A8
:1053E00000F00F0030308DF8110000208DF8120011
:1053F0009DF8240001EB20108DF80C009DF824008E
:1054000000F00F0030308DF80D0000208DF80E00F8
:105410009DF8220001EB20108DF808009DF8220075
:1054200000F00F0030308DF8090000208DF80A00E0
:105430009DF8210001EB20108DF804009DF821005B
:1054400000F00F0030308DF8050000208DF80600C8
:1054500003F0CEFE82A3042200210846FBF76EFD76
:10546000052C34D2DFE804F003346596C70005ABA1
:1054700014220321284604F0FDFA2D2334220321AF
:105480000020FBF73BFE04AB3C220321304604F036
:10549000F1FA2D234C2203210020FBF72FFE03AB52
:1054A00054220321304604F0E5FA02AB28220521FC
:1054B000304604F0DFFA3A23382205210020FBF7BA
:1054C0001DFE01AB40220521304604F0D3FAC3E0B3
:1054D00005AB14220321304604F0CCFA2D233422EC
:1054E00003210020FBF70AFE04AB3C2203212846DF
:1054F00004F0C0FA2D234C2203210020FBF7FEFD0F
:1055000003AB54220321304604F0B4FA02AB282244
:105510000521304604F0AEFA3A2338220521002056
:10552000FBF7ECFD01AB40220521304604F0A2FA66
:1055300092E005AB14220321304604F09BFA2D23A0
:10554000342203210020FBF7D9FD04AB3C220321C8
:10555000304604F08FFA2D234C2203210020FBF764
:10556000CDFD03AB54220321284604F083FA02AB9D
:1055700028220521304604F07DFA3A2338220521FD
:105580000020FBF7BBFD01AB40220521304604F0B3
:1055900071FA61E005AB14220321304604F06AFA87
:1055A0002D23342203210020FBF7A8FD04AB3C226D
:1055B0000321304604F05EFA2D234C220321002003
:1055C000FBF79CFD03AB54220321304604F052FA52
:1055D00002AB28220521284604F04CFA3A2338224F
:1055E00005210020FBF78AFD01AB40220521304652
:1055F00004F040FA30E005AB14220321304604F0F9
:1056000039FA2D23342203210020FBF777FD04AB68
:105610003C220321304604F02DFA2D234C22032195
:105620000020FBF76BFD03AB54220321304604F04E
:1056300021FA02AB28220521304604F01BFA3A2356
:10564000382205210020FBF759FD01AB402205213E
:10565000284604F00FFA00BF00BF0AB070BD00007A
:10566000CAB1BCE4C9E8D6C30000000010B50446C6
:10567000002003F0BDFDC4A3042200210846FBF76F
:105680005DFC082C2FD2DFE804F0042F5A85B0DB34
:10569000FEFDC04B0A220221002003F0DAFFBEA368
:1056A0001C220221002004F09FF8BCA32822022122
:1056B0000020FBF743FCBCA31C220421002004F0C3
:1056C00093F8BAA3282204210020FBF737FCBBA3E0
:1056D0001C220621002004F087F8B9A32822062105
:1056E0000020FBF72BFC4DE1AA4B0A2204210020ED
:1056F00003F0AFFFA8A31C220221002004F074F8DD
:10570000A6A3282202210020FBF718FCA6A31C2236
:105710000421002004F068F8A4A32822042100201A
:10572000FBF70CFCA5A31C220621002004F05CF86A
:10573000A3A3282206210020FBF700FC22E1954BC1
:105740000A220621002003F084FF93A31C220221D9
:10575000002004F049F891A3282202210020FBF741
:10576000EDFB91A31C220421002004F03DF88FA33F
:10577000282204210020FBF7E1FB90A31C22062134
:10578000002004F031F88EA3282206210020FBF728
:10579000D5FBF7E07F4B0A220621002003F059FFDA
:1057A00081A31C220221002004F01EF87FA32822DE
:1057B00002210020FBF7C2FB80A31C220421002051
:1057C00004F012F87EA3282204210020FBF7B6FB88
:1057D0007FA31C220621002004F006F87DA32822C6
:1057E00006210020FBF7AAFBCCE06A4B0A22062127
:1057F000002003F02EFF71A31C220221002003F0E1
:10580000F3FF6FA3282202210020FBF797FB70A370
:105810001C220421002003F0E7FF6EA328220421AC
:105820000020FBF78BFB6EA31C220621002003F057
:10583000DBFF6CA3282206210020FBF77FFBA1E001
:10584000544B0A220621002003F003FF60A31C2210
:105850000221002003F0C8FF5EA3282202210020BD
:10586000FBF76CFB5EA31C220421002003F0BCFFAD
:105870005CA3282204210020FBF760FB5CA31C2210
:10588000062101E049E013E0002003F0ADFF594894
:10589000007830B958A3282206210020FBF74EFBE0
:1058A00005E058A3282206210020FBF747FB69E00A
:1058B000384B0A220621002003F0CBFE48A31C220D
:1058C0000221002003F090FF46A32822022100209D
:1058D000FBF734FB46A31C220421002003F084FFC5
:1058E0004448007830B944A3282204210020FBF763
:1058F00025FB05E043A3282204210020FBF71EFB23
:1059000043A31C220621002003F06EFF41A328229E
:1059100006210020FBF712FB34E01E4B0A22062171
:10592000002003F096FE32A31C220221002003F087
:105930005BFF3048007830B92FA3282202210020D5
:10594000FBF7FCFA05E02FA3282202210020FBF739
:10595000F5FA2FA31C220421002003F045FF2DA3FC
:10596000282204210020FBF7E9FA2EA31C2206219D
:10597000002003F039FF2CA328220621002004F088
:1059800079F800BF00BF10BDCFB5CDB3C9E8D6C30D
:10599000000000001C000020312E0000B9CAD5CF45
:1059A000CAB9C4DC00000000322E0000B9CAD5CF4D
:1059B000C5D0B6A8CAB1BCE400000000332E000078
:1059C000B9CAD5CFB8B4CEBBCAB1BCE400000000A0
:1059D000342E0000CCD8CAE2BFD8D6C600000000E2
:1059E000352E0000B2CECAFDB1B8B7DD0000000010
:1059F000362E000006040020B2CECAFDBBB9D4ADDD
:105A000000000000B2CECAFDB2E9BFB40000000041
:105A1000372E0000BBD6B8B4B3F6B3A7C9E8D6C3D7
:105A200000000000382E00004550000070B505460B
:105A30000C46002003F0DCFBBEA304220021084634
:105A4000FBF77CFA35B1012D5FD0022D79D0032D03
:105A50005AD111E1BA4B0A220221002003F0F9FDCC
:105A6000B8A31C220221002003F0BEFEB6A3282208
:105A700002210020FBF7FBF804F0010030B1B4A3D1
:105A8000722202210020FBF759FA05E0B1A372222D
:105A900002210020FBF752FAAFA31C2204210020B0
:105AA00003F0A2FEADA3282204210020FBF7DFF8BB
:105AB00004F0020030B1A6A3722204210020FBF7FB
:105AC0003DFA05E0A3A3722204210020FBF736FA79
:105AD000A4A31C220621002003F086FEA2A32822F4
